{
  "transactions": [
    {
      "hash": "0xa210823c7faac09e7a3b0a7baa9ed93541fb0672e457b2581f2644bc1f82e5cd",
      "transactionType": "CALL",
      "contractName": null,
      "contractAddress": "0x8103b0a8a00be2ddc778e6e7eaa21791cd364625",
      "function": "createSubscription()",
      "arguments": [],
      "transaction": {
        "from": "0x53005f3f0da006d492a12dbe9fbc553577b8f9ab",
        "to": "0x8103b0a8a00be2ddc778e6e7eaa21791cd364625",
        "gas": "0x1558c",
        "value": "0x0",
        "input": "0xa21a23e4",
        "nonce": "0x34",
        "chainId": "0xaa36a7"
      },
      "additionalContracts": [],
      "isFixedGasLimit": false
    },
    {
      "hash": "0x6a11636ad045ccd121310ab8fb0606921c1a1dfbf3324d4e164fe2823727ef4f",
      "transactionType": "CALL",
      "contractName": "LinkToken",
      "contractAddress": "0x779877a7b0d9e8603169ddbd7836e478b4624789",
      "function": "transferAndCall(address,uint256,bytes)",
      "arguments": [
        "0x8103B0A8A00be2DDC778e6e7eaa21791Cd364625",
        "3000000000000000000",
        "0x0000000000000000000000000000000000000000000000000000000000002d87"
      ],
      "transaction": {
        "from": "0x53005f3f0da006d492a12dbe9fbc553577b8f9ab",
        "to": "0x779877a7b0d9e8603169ddbd7836e478b4624789",
        "gas": "0x1b43f",
        "value": "0x0",
        "input": "0x4000aea00000000000000000000000008103b0a8a00be2ddc778e6e7eaa21791cd36462500000000000000000000000000000000000000000000000029a2241af62c0000000000000000000000000000000000000000000000000000000000000000006000000000000000000000000000000000000000000000000000000000000000200000000000000000000000000000000000000000000000000000000000002d87",
        "nonce": "0x35",
        "chainId": "0xaa36a7"
      },
      "additionalContracts": [],
      "isFixedGasLimit": false
    },
    {
      "hash": "0x0fbd31874ce175244b38fd6357e20a31fb988275106e14b33d50ccf77c3f2c88",
      "transactionType": "CREATE",
      "contractName": "Raffle",
      "contractAddress": "0xeb59cd1593ced9b06a371457a01b5ba086f4c101",
      "function": null,
      "arguments": [
        "10000000000000000",
        "60",
        "0x8103B0A8A00be2DDC778e6e7eaa21791Cd364625",
        "0x474e34a077df58807dbe9c96d3c009b23b3c6d0cce433e59bbf5b34f823bc56c",
        "11655",
        "500000"
      ],
      "transaction": {
        "from": "0x53005f3f0da006d492a12dbe9fbc553577b8f9ab",
        "gas": "0xe19e0",
        "value": "0x0",
        "input": "0x61016060405234801561001157600080fd5b50604051610ce4380380610ce483398101604081905261003091610087565b6001600160a01b0393909316608081905260a09590955260c09390935260e093909352610100929092526001600160401b03166101205263ffffffff16610140526002805460ff60a01b1916905542600155610112565b60008060008060008060c087890312156100a057600080fd5b86516020880151604089015191975095506001600160a01b03811681146100c657600080fd5b6060880151608089015191955093506001600160401b03811681146100ea57600080fd5b60a088015190925063ffffffff8116811461010457600080fd5b809150509295509295509295565b60805160a05160c05160e051610100516101205161014051610b6461018060003960006104960152600061045f01526000610439015260006104d40152600081816103dd015261057d01526000818160a501526102820152600081816101fe01526102400152610b646000f3fe6080604052600436106100915760003560e01c80634585e33b116100595780634585e33b1461013e578063473f1ddc1461015e5780635e6c102e14610190578063c1c244e8146101be578063e55ae4e8146101d357600080fd5b806309bc33a7146100965780630ea3df38146100d8578063115cbaf5146100ed5780631fe543e3146101145780632cfcc53914610136575b600080fd5b3480156100a257600080fd5b507f00000000000000000000000000000000000000000000000000000000000000005b6040519081526020015b60405180910390f35b3480156100e457600080fd5b506000546100c5565b3480156100f957600080fd5b50600254600160a01b900460ff166040516100cf919061081c565b34801561012057600080fd5b5061013461012f36600461088b565b6101f3565b005b610134610280565b34801561014a57600080fd5b5061013461015936600461093d565b61036b565b34801561016a57600080fd5b506002546001600160a01b03165b6040516001600160a01b0390911681526020016100cf565b34801561019c57600080fd5b506101b06101ab3660046109af565b610575565b6040516100cf929190610a44565b3480156101ca57600080fd5b506001546100c5565b3480156101df57600080fd5b506101786101ee366004610a9d565b610622565b336001600160a01b037f000000000000000000000000000000000000000000000000000000000000000016146102725760405163073e64fd60e21b81523360048201526001600160a01b037f00000000000000000000000000000000000000000000000000000000000000001660248201526044015b60405180910390fd5b61027c8282610651565b5050565b7f00000000000000000000000000000000000000000000000000000000000000003410156102c15760405163246b904d60e01b815260040160405180910390fd5b6000600254600160a01b900460ff1660018111156102e1576102e1610806565b146102ff5760405163349289c560e21b815260040160405180910390fd5b600080546001810182558180527f290decd9548b62a8d60345a988386fc84ba6bc95484008f6362f93160ef3e5630180546001600160a01b0319163390811790915560405190917f819fbd717c9d0b421352c5116a644ca68ba176960c33f406f08d98a27370ca2791a2565b600061038560405180602001604052806000815250610575565b509050806103db57600054600254479190600160a01b900460ff1660018111156103b1576103b1610806565b604051632c2193d560e11b8152600481019390935260248301919091526044820152606401610269565b7f00000000000000000000000000000000000000000000000000000000000000006001544261040a9190610ab6565b101561041557600080fd5b60028054600160a01b60ff60a01b199091161790556040516305d3b1d360e41b81527f000000000000000000000000000000000000000000000000000000000000000060048201527f000000000000000000000000000000000000000000000000000000000000000067ffffffffffffffff166024820152600360448201527f000000000000000000000000000000000000000000000000000000000000000063ffffffff166064820152600160848201526000906001600160a01b037f00000000000000000000000000000000000000000000000000000000000000001690635d3b1d309060a4016020604051808303816000875af115801561051d573d6000803e3d6000fd5b505050506040513d601f19601f820116820180604052508101906105419190610add565b60405190915081907fcd6e45c8998311cab7e9d4385596cac867e20a0587194b954fa3a731c93ce78b90600090a250505050565b6000606060007f0000000000000000000000000000000000000000000000000000000000000000600154426105aa9190610ab6565b101590506000600260149054906101000a900460ff1660018111156105d1576105d1610806565b600054901591504715159015158380156105e85750825b80156105f15750815b80156105fa5750805b60408051808201909152600381526203078360ec1b6020820152909890975095505050505050565b600080828154811061063657610636610af6565b6000918252602090912001546001600160a01b031692915050565b6000805482518390839061066757610667610af6565b60200260200101516106799190610b0c565b9050600080828154811061068f5761068f610af6565b600091825260208083209190910154600280546001600160a81b0319166001600160a01b039092169182179055604080518481529283019081905291519093506106da92919061078c565b50426001556040516000906001600160a01b0383169047908381818185875af1925050503d806000811461072a576040519150601f19603f3d011682016040523d82523d6000602084013e61072f565b606091505b50509050806107515760405163a1d04b3960e01b815260040160405180910390fd5b6040516001600160a01b038316907fb112587e57bfa970257f3d54fc52859c6300f6bd7a982462c320fed45c2530ed90600090a25050505050565b8280548282559060005260206000209081019282156107e1579160200282015b828111156107e157825182546001600160a01b0319166001600160a01b039091161782556020909201916001909101906107ac565b506107ed9291506107f1565b5090565b5b808211156107ed57600081556001016107f2565b634e487b7160e01b600052602160045260246000fd5b602081016002831061083e57634e487b7160e01b600052602160045260246000fd5b91905290565b634e487b7160e01b600052604160045260246000fd5b604051601f8201601f1916810167ffffffffffffffff8111828210171561088357610883610844565b604052919050565b6000806040838503121561089e57600080fd5b8235915060208084013567ffffffffffffffff808211156108be57600080fd5b818601915086601f8301126108d257600080fd5b8135818111156108e4576108e4610844565b8060051b91506108f584830161085a565b818152918301840191848101908984111561090f57600080fd5b938501935b8385101561092d57843582529385019390850190610914565b8096505050505050509250929050565b6000806020838503121561095057600080fd5b823567ffffffffffffffff8082111561096857600080fd5b818501915085601f83011261097c57600080fd5b81358181111561098b57600080fd5b86602082850101111561099d57600080fd5b60209290920196919550909350505050565b600060208083850312156109c257600080fd5b823567ffffffffffffffff808211156109da57600080fd5b818501915085601f8301126109ee57600080fd5b813581811115610a0057610a00610844565b610a12601f8201601f1916850161085a565b91508082528684828501011115610a2857600080fd5b8084840185840137600090820190930192909252509392505050565b82151581526000602060406020840152835180604085015260005b81811015610a7b57858101830151858201606001528201610a5f565b506000606082860101526060601f19601f830116850101925050509392505050565b600060208284031215610aaf57600080fd5b5035919050565b81810381811115610ad757634e487b7160e01b600052601160045260246000fd5b92915050565b600060208284031215610aef57600080fd5b5051919050565b634e487b7160e01b600052603260045260246000fd5b600082610b2957634e487b7160e01b600052601260045260246000fd5b50069056fea2646970667358221220a4a529c19c750d4c97e5860840da98b923b2cc84db74115d906fc1e66909087764736f6c63430008190033000000000000000000000000000000000000000000000000002386f26fc10000000000000000000000000000000000000000000000000000000000000000003c0000000000000000000000008103b0a8a00be2ddc778e6e7eaa21791cd364625474e34a077df58807dbe9c96d3c009b23b3c6d0cce433e59bbf5b34f823bc56c0000000000000000000000000000000000000000000000000000000000002d87000000000000000000000000000000000000000000000000000000000007a120",
        "nonce": "0x36",
        "chainId": "0xaa36a7"
      },
      "additionalContracts": [],
      "isFixedGasLimit": false
    },
    {
      "hash": "0x10673916cde1fd7ce90750e78398fe893d20d22b40948a18d613162d7edad5e3",
      "transactionType": "CALL",
      "contractName": null,
      "contractAddress": "0x8103b0a8a00be2ddc778e6e7eaa21791cd364625",
      "function": "addConsumer(uint64,address)",
      "arguments": [
        "11655",
        "0xEB59CD1593CeD9b06A371457a01b5BA086f4C101"
      ],
      "transaction": {
        "from": "0x53005f3f0da006d492a12dbe9fbc553577b8f9ab",
        "to": "0x8103b0a8a00be2ddc778e6e7eaa21791cd364625",
        "gas": "0x21eb0",
        "value": "0x0",
        "input": "0x7341c10c0000000000000000000000000000000000000000000000000000000000002d87000000000000000000000000eb59cd1593ced9b06a371457a01b5ba086f4c101",
        "nonce": "0x37",
        "chainId": "0xaa36a7"
      },
      "additionalContracts": [],
      "isFixedGasLimit": false
    }
  ],
  "receipts": [
    {
      "status": "0x1",
      "cumulativeGasUsed": "0x83c5ec",
      "logs": [
        {
          "address": "0x8103b0a8a00be2ddc778e6e7eaa21791cd364625",
          "topics": [
            "0x464722b4166576d3dcbba877b999bc35cf911f4eaf434b7eba68fa113951d0bf",
            "0x0000000000000000000000000000000000000000000000000000000000002d87"
          ],
          "data": "0x00000000000000000000000053005f3f0da006d492a12dbe9fbc553577b8f9ab",
          "blockHash": "0x4b4b2ec2eff7165c7a0627a5eb458de075c4c94c8f25d25bf9d3db2a595888bf",
          "blockNumber": "0x59eb9a",
          "transactionHash": "0xa210823c7faac09e7a3b0a7baa9ed93541fb0672e457b2581f2644bc1f82e5cd",
          "transactionIndex": "0x36",
          "logIndex": "0xd8",
          "removed": false
        }
      ],
      "logsBloom": "0x0000000000000000000001000000004000000000000000000000008000000000010000000000000000000000000000000000000000000000000000000000000000000000000000000000000100000000000000000000000000000000000000000000000000000000000000000000000000000000000000000000000000000000000000000c000020000000000000000000000000000000000000000000000000000000000000000000000000000000000000000000000000000000000000000000000000000000200000000000000000000000000000000000000000000000000000000000000000000000000000000000000000000000000000000000000000",
      "type": "0x2",
      "transactionHash": "0xa210823c7faac09e7a3b0a7baa9ed93541fb0672e457b2581f2644bc1f82e5cd",
      "transactionIndex": "0x36",
      "blockHash": "0x4b4b2ec2eff7165c7a0627a5eb458de075c4c94c8f25d25bf9d3db2a595888bf",
      "blockNumber": "0x59eb9a",
      "gasUsed": "0xe98a",
      "effectiveGasPrice": "0x2f70aa2ea7",
      "from": "0x53005f3f0da006d492a12dbe9fbc553577b8f9ab",
      "to": "0x8103b0a8a00be2ddc778e6e7eaa21791cd364625",
      "contractAddress": null
    },
    {
      "status": "0x1",
      "cumulativeGasUsed": "0x84f036",
      "logs": [
        {
          "address": "0x779877a7b0d9e8603169ddbd7836e478b4624789",
          "topics": [
            "0xddf252ad1be2c89b69c2b068fc378daa952ba7f163c4a11628f55a4df523b3ef",
            "0x00000000000000000000000053005f3f0da006d492a12dbe9fbc553577b8f9ab",
            "0x0000000000000000000000008103b0a8a00be2ddc778e6e7eaa21791cd364625"
          ],
          "data": "0x00000000000000000000000000000000000000000000000029a2241af62c0000",
          "blockHash": "0x4b4b2ec2eff7165c7a0627a5eb458de075c4c94c8f25d25bf9d3db2a595888bf",
          "blockNumber": "0x59eb9a",
          "transactionHash": "0x6a11636ad045ccd121310ab8fb0606921c1a1dfbf3324d4e164fe2823727ef4f",
          "transactionIndex": "0x37",
          "logIndex": "0xd9",
          "removed": false
        },
        {
          "address": "0x779877a7b0d9e8603169ddbd7836e478b4624789",
          "topics": [
            "0xe19260aff97b920c7df27010903aeb9c8d2be5d310a2c67824cf3f15396e4c16",
            "0x00000000000000000000000053005f3f0da006d492a12dbe9fbc553577b8f9ab",
            "0x0000000000000000000000008103b0a8a00be2ddc778e6e7eaa21791cd364625"
          ],
          "data": "0x00000000000000000000000000000000000000000000000029a2241af62c0000000000000000000000000000000000000000000000000000000000000000004000000000000000000000000000000000000000000000000000000000000000200000000000000000000000000000000000000000000000000000000000002d87",
          "blockHash": "0x4b4b2ec2eff7165c7a0627a5eb458de075c4c94c8f25d25bf9d3db2a595888bf",
          "blockNumber": "0x59eb9a",
          "transactionHash": "0x6a11636ad045ccd121310ab8fb0606921c1a1dfbf3324d4e164fe2823727ef4f",
          "transactionIndex": "0x37",
          "logIndex": "0xda",
          "removed": false
        },
        {
          "address": "0x8103b0a8a00be2ddc778e6e7eaa21791cd364625",
          "topics": [
            "0xd39ec07f4e209f627a4c427971473820dc129761ba28de8906bd56f57101d4f8",
            "0x0000000000000000000000000000000000000000000000000000000000002d87"
          ],
          "data": "0x000000000000000000000000000000000000000000000000000000000000000000000000000000000000000000000000000000000000000029a2241af62c0000",
          "blockHash": "0x4b4b2ec2eff7165c7a0627a5eb458de075c4c94c8f25d25bf9d3db2a595888bf",
          "blockNumber": "0x59eb9a",
          "transactionHash": "0x6a11636ad045ccd121310ab8fb0606921c1a1dfbf3324d4e164fe2823727ef4f",
          "transactionIndex": "0x37",
          "logIndex": "0xdb",
          "removed": false
        }
      ],
      "logsBloom": "0x0000001400000000000000000000004000000000000000020000008002000000000000000000800000000000000000000000000200000000000000000000000000000000000000000000000900000000000000000020000000002000000000000000000000000000000000200000000000000000400000000000001000000000000000000c000020000000000000800010000020000000000000000000000000000000000000000000000000000000000000000000000000000400000000000000000002000000000000000000000000000000000000000100000000000000000000000000000000000000000000000000000000000000000000000000000000",
      "type": "0x2",
      "transactionHash": "0x6a11636ad045ccd121310ab8fb0606921c1a1dfbf3324d4e164fe2823727ef4f",
      "transactionIndex": "0x37",
      "blockHash": "0x4b4b2ec2eff7165c7a0627a5eb458de075c4c94c8f25d25bf9d3db2a595888bf",
      "blockNumber": "0x59eb9a",
      "gasUsed": "0x12a4a",
      "effectiveGasPrice": "0x2f70aa2ea7",
      "from": "0x53005f3f0da006d492a12dbe9fbc553577b8f9ab",
      "to": "0x779877a7b0d9e8603169ddbd7836e478b4624789",
      "contractAddress": null
    },
    {
      "status": "0x1",
      "cumulativeGasUsed": "0x8fc9e6",
      "logs": [],
      "logsBloom": "0x00000000000000000000000000000000000000000000000000000000000000000000000000000000000000000000000000000000000000000000000000000000000000000000000000000000000000000000000000000000000000000000000000000000000000000000000000000000000000000000000000000000000000000000000000000000000000000000000000000000000000000000000000000000000000000000000000000000000000000000000000000000000000000000000000000000000000000000000000000000000000000000000000000000000000000000000000000000000000000000000000000000000000000000000000000000",
      "type": "0x2",
      "transactionHash": "0x0fbd31874ce175244b38fd6357e20a31fb988275106e14b33d50ccf77c3f2c88",
      "transactionIndex": "0x38",
      "blockHash": "0x4b4b2ec2eff7165c7a0627a5eb458de075c4c94c8f25d25bf9d3db2a595888bf",
      "blockNumber": "0x59eb9a",
      "gasUsed": "0xad9b0",
      "effectiveGasPrice": "0x2f70aa2ea7",
      "from": "0x53005f3f0da006d492a12dbe9fbc553577b8f9ab",
      "to": null,
      "contractAddress": "0xeb59cd1593ced9b06a371457a01b5ba086f4c101"
    },
    {
      "status": "0x1",
      "cumulativeGasUsed": "0x35b3a3",
      "logs": [
        {
          "address": "0x8103b0a8a00be2ddc778e6e7eaa21791cd364625",
          "topics": [
            "0x43dc749a04ac8fb825cbd514f7c0e13f13bc6f2ee66043b76629d51776cff8e0",
            "0x0000000000000000000000000000000000000000000000000000000000002d87"
          ],
          "data": "0x000000000000000000000000eb59cd1593ced9b06a371457a01b5ba086f4c101",
          "blockHash": "0x42b010dd8cee209a5cf10a2bece8d7e5ef7d501d4de0687e546e64781270a9c5",
          "blockNumber": "0x59eb9b",
          "transactionHash": "0x10673916cde1fd7ce90750e78398fe893d20d22b40948a18d613162d7edad5e3",
          "transactionIndex": "0x13",
          "logIndex": "0xb",
          "removed": false
        }
      ],
      "logsBloom": "0x0000000000000000000000000000004000000000000000000000008000000000000000000000000000000000000000000000000000000000000000000000000000000000000000000000000100000000000000000000000000000000000000000000000000008000000000000000000000000000000000000000000000000000000000000c000020000000000000000000000000000000000000000000000000000000000000000000000080000000000000000000000000000000000000000000000000000000000000000000000000000000000000000000020000000000000000000000000000000000000000000000000000000000000000000000000000",
      "type": "0x2",
      "transactionHash": "0x10673916cde1fd7ce90750e78398fe893d20d22b40948a18d613162d7edad5e3",
      "transactionIndex": "0x13",
      "blockHash": "0x42b010dd8cee209a5cf10a2bece8d7e5ef7d501d4de0687e546e64781270a9c5",
      "blockNumber": "0x59eb9b",
      "gasUsed": "0x17312",
      "effectiveGasPrice": "0x3126344ee5",
      "from": "0x53005f3f0da006d492a12dbe9fbc553577b8f9ab",
      "to": "0x8103b0a8a00be2ddc778e6e7eaa21791cd364625",
      "contractAddress": null
    }
  ],
  "libraries": [],
  "pending": [],
  "returns": {
    "0": {
      "internal_type": "contract Raffle",
      "value": "0xEB59CD1593CeD9b06A371457a01b5BA086f4C101"
    },
    "1": {
      "internal_type": "contract HelperConfig",
      "value": "0xC7f2Cf4845C6db0e1a1e91ED41Bcd0FcC1b0E141"
    }
  },
  "timestamp": 1715585338,
  "chain": 11155111,
  "commit": "4198794"
}